S0190000496E746572666163696E674B65797061642E7372656343
S11300000C942A000C943F000C943F000C943F0085
S11300100C943F000C943F000C943F000C943F0060
S11300200C943F000C943F000C943F000C943F0050
S11300300C943F000C943F000C943F000C943F0040
S11300400C943F000C943F000C943F000C943F0030
S11300500C943F0011241FBECFE5D8E0DEBFCDBF16
S113006010E0A0E6B0E0E6EEF1E002C005900D92EB
S1130070A038B107D9F70E94B9000C94F1000C9490
S113008000001ABA8FEF87BB84BB8FE081BB1BBA19
S113009018BA15BA12BA0895843078F4E82FF0E04B
S11300A0EE0FFF1FE858FF4F0190F081E02D808193
S11300B0682360838081482B40830895843078F5D9
S11300C0683068F5442319F04130B1F00895E82F01
S11300D0F0E0EE0FFF1FE858FF4F0190F081E02D94
S11300E0208181E090E002C0880F991F6A95E2F7B1
S11300F08095822380830895E82FF0E0EE0FFF1FA0
S1130100E858FF4F0190F081E02D208181E090E0DC
S113011002C0880F991F6A95E2F7822B80830895A5
S11301208430A8F46830A8F4E82FF0E0EE0FFF1F45
S1130130E059FF4F0190F081E02D208181E090E0B3
S113014002C0880F991F6A95E2F78223089580E020
S1130150089580E0089540E06FE082E00E944C0042
S11301600895482F4295407F6FE082E00E944C0042
S113017008950E9441000E94AB0041E062E082E0E9
S11301800E945E000F2EF0E6EF2EF0E0FF2EF02D21
S1130190D0E041E06D2F83E00E945E008701C4E05F
S11301A06C2F83E00E949000882321F0F801808165
S11301B00E94B100CF5F0C5F1F4FC83089F740E049
S11301C06D2F83E00E945E008FE19EE40197F1F7BA
S11301D000C00000DF5F9FEFE91AF90AD430C9F6C6
S10901E0D1CFF894FFCF1B
S11301E600000000000908070006050400030201D8
S11301F639003600330030003B0038003500320049
S9030000FC
