:100000000C942A000C943F000C943F000C943F0089
:100010000C943F000C943F000C943F000C943F0064
:100020000C943F000C943F000C943F000C943F0054
:100030000C943F000C943F000C943F000C943F0044
:100040000C943F000C943F000C943F000C943F0034
:100050000C943F0011241FBECFE5D8E0DEBFCDBF1A
:1000600010E0A0E6B0E0EEEEF1E002C005900D92E7
:10007000A039B107D9F70E94B5000C94F5000C9493
:1000800000001ABA8FEF87BB84BB8FE081BB1BBA1D
:1000900018BA15BA80EF82BB0895843078F4E82F3F
:1000A000F0E0EE0FFF1FE857FF4F0190F081E02DC9
:1000B0008081682360838081482B40830895843049
:1000C000C8F468307105B0F441155105A9F041300C
:1000D000510589F4E82FF0E0EE0FFF1FE857FF4FBE
:1000E0000190F081E02D808101C0440F6A95EAF70C
:1000F000482B408308950895E82FF0E0EE0FFF1F8E
:10010000E857FF4F0190F081E02D208181E090E0E1
:1001100001C0880F6A95EAF780958223808308954D
:100120008430A8F46830710590F4E82FF0E0EE0F09
:10013000FF1FE058FF4F0190F081E02D208181E00A
:1001400090E001C0880F6A95EAF78223089580E065
:10015000089540E06FE082E00C944D00482F4295F6
:10016000407F6FE082E00C944D000E9441000E94AD
:10017000A90041E050E062E070E082E00E945F0090
:10018000E12CF12C40E050E0B70183E00E945F00D9
:10019000E701C059DF4FC70180589F4F6C0104E051
:1001A00010E0B80183E00E9490008823D1F00F5F37
:1001B0001F4F2496CC16DD06A1F741E050E0B701B1
:1001C00083E00E945F008FE19EE40197F1F700C099
:1001D00000009FEFE91AF90A84E0E816F10491F6AD
:0E01E000CFCF88810E94AE00E2CFF894FFCF0F
:1001EE0007080900040506000102030000000000D4
:1001FE0030303030303938373036353430333231C4
:10020E0039003600330030003B0038003500320034
:00000001FF
